{
  "contractName": "PinController",
  "abi": [
    {
      "inputs": [],
      "stateMutability": "nonpayable",
      "type": "constructor"
    },
    {
      "inputs": [
        {
          "internalType": "uint8",
          "name": "",
          "type": "uint8"
        }
      ],
      "name": "pinStatus",
      "outputs": [
        {
          "internalType": "bool",
          "name": "",
          "type": "bool"
        }
      ],
      "stateMutability": "view",
      "type": "function"
    },
    {
      "inputs": [
        {
          "internalType": "uint8",
          "name": "_pin",
          "type": "uint8"
        },
        {
          "internalType": "bool",
          "name": "_isActive",
          "type": "bool"
        }
      ],
      "name": "controlPin",
      "outputs": [],
      "stateMutability": "nonpayable",
      "type": "function"
    }
  ],
  "bytecode": "0x608060405234801561001057600080fd5b50336000806101000a81548173ffffffffffffffffffffffffffffffffffffffff021916908373ffffffffffffffffffffffffffffffffffffffff160217905550610277806100606000396000f3fe608060405234801561001057600080fd5b50600436106100365760003560e01c8063d60465ce1461003b578063dc9da8111461006b575b600080fd5b61005560048036038101906100509190610172565b610087565b60405161006291906101ba565b60405180910390f35b61008560048036038101906100809190610201565b6100a7565b005b60016020528060005260406000206000915054906101000a900460ff1681565b60008054906101000a900473ffffffffffffffffffffffffffffffffffffffff1673ffffffffffffffffffffffffffffffffffffffff163373ffffffffffffffffffffffffffffffffffffffff16146100ff57600080fd5b80600160008460ff1660ff16815260200190815260200160002060006101000a81548160ff0219169083151502179055505050565b600080fd5b600060ff82169050919050565b61014f81610139565b811461015a57600080fd5b50565b60008135905061016c81610146565b92915050565b60006020828403121561018857610187610134565b5b60006101968482850161015d565b91505092915050565b60008115159050919050565b6101b48161019f565b82525050565b60006020820190506101cf60008301846101ab565b92915050565b6101de8161019f565b81146101e957600080fd5b50565b6000813590506101fb816101d5565b92915050565b6000806040838503121561021857610217610134565b5b60006102268582860161015d565b9250506020610237858286016101ec565b915050925092905056fea2646970667358221220fba81f2b3cd419d3efb06e3d3ffad509fd95e679a6fdcfac8ae53ed72f6c054d64736f6c634300080e0033",
  "immutableReferences": {},
  "source": "\npragma solidity 0.8.14;\n\ncontract PinController {\n    address owner;\n\n    constructor() {\n        owner = msg.sender;\n    }\n\n    mapping(uint8 => bool) public pinStatus;\n\n    function controlPin(uint8 _pin, bool _isActive) public {\n        require(msg.sender == owner);\n        pinStatus[_pin] = _isActive;\n    }\n}\n",
  "sourcePath": "C:\\Users\\Sanjana\\Desktop\\IoT-and-Blockchain-master\\contracts\\PinController.sol",
  "compiler": {
    "name": "solc",
    "version": "0.8.14+commit.80d49f37.Emscripten.clang"
  },
  "schemaVersion": "3.4.7",
  "updatedAt": "2022-06-14T14:56:34.886Z",
  "devdoc": {
    "kind": "dev",
    "methods": {},
    "version": 1
  },
  "userdoc": {
    "kind": "user",
    "methods": {},
    "version": 1
  }
}